{
  "_format": "hh-sol-artifact-1",
  "contractName": "TokenTest",
  "sourceName": "contracts/TokenTest.sol",
  "abi": [
    {
      "inputs": [
        {
          "internalType": "address",
          "name": "_trustedForwarder",
          "type": "address"
        }
      ],
      "stateMutability": "nonpayable",
      "type": "constructor"
    },
    {
      "anonymous": false,
      "inputs": [
        {
          "indexed": true,
          "internalType": "address",
          "name": "owner",
          "type": "address"
        },
        {
          "indexed": true,
          "internalType": "address",
          "name": "spender",
          "type": "address"
        },
        {
          "indexed": false,
          "internalType": "uint256",
          "name": "value",
          "type": "uint256"
        }
      ],
      "name": "Approval",
      "type": "event"
    },
    {
      "anonymous": false,
      "inputs": [
        {
          "indexed": true,
          "internalType": "address",
          "name": "from",
          "type": "address"
        },
        {
          "indexed": true,
          "internalType": "address",
          "name": "to",
          "type": "address"
        },
        {
          "indexed": false,
          "internalType": "uint256",
          "name": "value",
          "type": "uint256"
        }
      ],
      "name": "Transfer",
      "type": "event"
    },
    {
      "inputs": [
        {
          "internalType": "address",
          "name": "owner",
          "type": "address"
        },
        {
          "internalType": "address",
          "name": "spender",
          "type": "address"
        }
      ],
      "name": "allowance",
      "outputs": [
        {
          "internalType": "uint256",
          "name": "",
          "type": "uint256"
        }
      ],
      "stateMutability": "view",
      "type": "function"
    },
    {
      "inputs": [
        {
          "internalType": "address",
          "name": "spender",
          "type": "address"
        },
        {
          "internalType": "uint256",
          "name": "amount",
          "type": "uint256"
        }
      ],
      "name": "approve",
      "outputs": [
        {
          "internalType": "bool",
          "name": "",
          "type": "bool"
        }
      ],
      "stateMutability": "nonpayable",
      "type": "function"
    },
    {
      "inputs": [
        {
          "internalType": "address",
          "name": "account",
          "type": "address"
        }
      ],
      "name": "balanceOf",
      "outputs": [
        {
          "internalType": "uint256",
          "name": "",
          "type": "uint256"
        }
      ],
      "stateMutability": "view",
      "type": "function"
    },
    {
      "inputs": [],
      "name": "decimals",
      "outputs": [
        {
          "internalType": "uint8",
          "name": "",
          "type": "uint8"
        }
      ],
      "stateMutability": "view",
      "type": "function"
    },
    {
      "inputs": [
        {
          "internalType": "address",
          "name": "spender",
          "type": "address"
        },
        {
          "internalType": "uint256",
          "name": "subtractedValue",
          "type": "uint256"
        }
      ],
      "name": "decreaseAllowance",
      "outputs": [
        {
          "internalType": "bool",
          "name": "",
          "type": "bool"
        }
      ],
      "stateMutability": "nonpayable",
      "type": "function"
    },
    {
      "inputs": [],
      "name": "getTrustedForwarder",
      "outputs": [
        {
          "internalType": "address",
          "name": "forwarder",
          "type": "address"
        }
      ],
      "stateMutability": "view",
      "type": "function"
    },
    {
      "inputs": [
        {
          "internalType": "address",
          "name": "spender",
          "type": "address"
        },
        {
          "internalType": "uint256",
          "name": "addedValue",
          "type": "uint256"
        }
      ],
      "name": "increaseAllowance",
      "outputs": [
        {
          "internalType": "bool",
          "name": "",
          "type": "bool"
        }
      ],
      "stateMutability": "nonpayable",
      "type": "function"
    },
    {
      "inputs": [
        {
          "internalType": "address",
          "name": "forwarder",
          "type": "address"
        }
      ],
      "name": "isTrustedForwarder",
      "outputs": [
        {
          "internalType": "bool",
          "name": "",
          "type": "bool"
        }
      ],
      "stateMutability": "view",
      "type": "function"
    },
    {
      "inputs": [],
      "name": "message",
      "outputs": [
        {
          "internalType": "string",
          "name": "",
          "type": "string"
        }
      ],
      "stateMutability": "view",
      "type": "function"
    },
    {
      "inputs": [],
      "name": "name",
      "outputs": [
        {
          "internalType": "string",
          "name": "",
          "type": "string"
        }
      ],
      "stateMutability": "view",
      "type": "function"
    },
    {
      "inputs": [],
      "name": "owner",
      "outputs": [
        {
          "internalType": "address",
          "name": "",
          "type": "address"
        }
      ],
      "stateMutability": "view",
      "type": "function"
    },
    {
      "inputs": [
        {
          "internalType": "string",
          "name": "_message",
          "type": "string"
        }
      ],
      "name": "setMessage",
      "outputs": [],
      "stateMutability": "nonpayable",
      "type": "function"
    },
    {
      "inputs": [],
      "name": "symbol",
      "outputs": [
        {
          "internalType": "string",
          "name": "",
          "type": "string"
        }
      ],
      "stateMutability": "view",
      "type": "function"
    },
    {
      "inputs": [],
      "name": "totalSupply",
      "outputs": [
        {
          "internalType": "uint256",
          "name": "",
          "type": "uint256"
        }
      ],
      "stateMutability": "view",
      "type": "function"
    },
    {
      "inputs": [
        {
          "internalType": "address",
          "name": "to",
          "type": "address"
        },
        {
          "internalType": "uint256",
          "name": "amount",
          "type": "uint256"
        }
      ],
      "name": "transfer",
      "outputs": [
        {
          "internalType": "bool",
          "name": "",
          "type": "bool"
        }
      ],
      "stateMutability": "nonpayable",
      "type": "function"
    },
    {
      "inputs": [
        {
          "internalType": "address",
          "name": "from",
          "type": "address"
        },
        {
          "internalType": "address",
          "name": "to",
          "type": "address"
        },
        {
          "internalType": "uint256",
          "name": "amount",
          "type": "uint256"
        }
      ],
      "name": "transferFrom",
      "outputs": [
        {
          "internalType": "bool",
          "name": "",
          "type": "bool"
        }
      ],
      "stateMutability": "nonpayable",
      "type": "function"
    },
    {
      "inputs": [],
      "name": "trustedForwarder",
      "outputs": [
        {
          "internalType": "address",
          "name": "",
          "type": "address"
        }
      ],
      "stateMutability": "view",
      "type": "function"
    }
  ],
  "bytecode": "0x60806040523480156200001157600080fd5b5060405162002083380380620020838339818101604052810190620000379190620004fa565b6040518060400160405280600981526020017f546f6b656e5465737400000000000000000000000000000000000000000000008152506040518060400160405280600281526020017f54540000000000000000000000000000000000000000000000000000000000008152508160039080519060200190620000bb929190620003e0565b508060049080519060200190620000d4929190620003e0565b505050620000e7620001b060201b60201c565b600660006101000a81548173ffffffffffffffffffffffffffffffffffffffff021916908373ffffffffffffffffffffffffffffffffffffffff160217905550620001686200013b620001b060201b60201c565b6012600a6200014b9190620006b9565b6305f5e1006200015c91906200070a565b620001cc60201b60201c565b80600760006101000a81548173ffffffffffffffffffffffffffffffffffffffff021916908373ffffffffffffffffffffffffffffffffffffffff16021790555050620008de565b6000620001c76200033a60201b6200083d1760201c565b905090565b600073ffffffffffffffffffffffffffffffffffffffff168273ffffffffffffffffffffffffffffffffffffffff1614156200023f576040517f08c379a00000000000000000000000000000000000000000000000000000000081526004016200023690620007cc565b60405180910390fd5b62000253600083836200037c60201b60201c565b8060026000828254620002679190620007ee565b92505081905550806000808473ffffffffffffffffffffffffffffffffffffffff1673ffffffffffffffffffffffffffffffffffffffff168152602001908152602001600020600082825401925050819055508173ffffffffffffffffffffffffffffffffffffffff16600073ffffffffffffffffffffffffffffffffffffffff167fddf252ad1be2c89b69c2b068fc378daa952ba7f163c4a11628f55a4df523b3ef836040516200031a91906200085c565b60405180910390a362000336600083836200038160201b60201c565b5050565b600060146000369050101580156200035f57506200035e336200038660201b60201c565b5b156200037557601436033560601c905062000379565b3390505b90565b505050565b505050565b6000600560009054906101000a900473ffffffffffffffffffffffffffffffffffffffff1673ffffffffffffffffffffffffffffffffffffffff168273ffffffffffffffffffffffffffffffffffffffff16149050919050565b828054620003ee90620008a8565b90600052602060002090601f0160209004810192826200041257600085556200045e565b82601f106200042d57805160ff19168380011785556200045e565b828001600101855582156200045e579182015b828111156200045d57825182559160200191906001019062000440565b5b5090506200046d919062000471565b5090565b5b808211156200048c57600081600090555060010162000472565b5090565b600080fd5b600073ffffffffffffffffffffffffffffffffffffffff82169050919050565b6000620004c28262000495565b9050919050565b620004d481620004b5565b8114620004e057600080fd5b50565b600081519050620004f481620004c9565b92915050565b60006020828403121562000513576200051262000490565b5b60006200052384828501620004e3565b91505092915050565b7f4e487b7100000000000000000000000000000000000000000000000000000000600052601160045260246000fd5b60008160011c9050919050565b6000808291508390505b6001851115620005ba578086048111156200059257620005916200052c565b5b6001851615620005a25780820291505b8081029050620005b2856200055b565b945062000572565b94509492505050565b600082620005d55760019050620006a8565b81620005e55760009050620006a8565b8160018114620005fe576002811462000609576200063f565b6001915050620006a8565b60ff8411156200061e576200061d6200052c565b5b8360020a9150848211156200063857620006376200052c565b5b50620006a8565b5060208310610133831016604e8410600b8410161715620006795782820a9050838111156200067357620006726200052c565b5b620006a8565b62000688848484600162000568565b92509050818404811115620006a257620006a16200052c565b5b81810290505b9392505050565b6000819050919050565b6000620006c682620006af565b9150620006d383620006af565b9250620007027fffffffffffffffffffffffffffffffffffffffffffffffffffffffffffffffff8484620005c3565b905092915050565b60006200071782620006af565b91506200072483620006af565b9250817fffffffffffffffffffffffffffffffffffffffffffffffffffffffffffffffff048311821515161562000760576200075f6200052c565b5b828202905092915050565b600082825260208201905092915050565b7f45524332303a206d696e7420746f20746865207a65726f206164647265737300600082015250565b6000620007b4601f836200076b565b9150620007c1826200077c565b602082019050919050565b60006020820190508181036000830152620007e781620007a5565b9050919050565b6000620007fb82620006af565b91506200080883620006af565b9250827fffffffffffffffffffffffffffffffffffffffffffffffffffffffffffffffff0382111562000840576200083f6200052c565b5b828201905092915050565b6200085681620006af565b82525050565b60006020820190506200087360008301846200084b565b92915050565b7f4e487b7100000000000000000000000000000000000000000000000000000000600052602260045260246000fd5b60006002820490506001821680620008c157607f821691505b60208210811415620008d857620008d762000879565b5b50919050565b61179580620008ee6000396000f3fe608060405234801561001057600080fd5b506004361061010b5760003560e01c806370a08231116100a2578063a457c2d711610071578063a457c2d7146102d0578063a9059cbb14610300578063ce1b815f14610330578063dd62ed3e1461034e578063e21f37ce1461037e5761010b565b806370a08231146102465780637da0a877146102765780638da5cb5b1461029457806395d89b41146102b25761010b565b8063313ce567116100de578063313ce567146101ac578063368b8772146101ca57806339509351146101e6578063572b6c05146102165761010b565b806306fdde0314610110578063095ea7b31461012e57806318160ddd1461015e57806323b872dd1461017c575b600080fd5b61011861039c565b6040516101259190610e98565b60405180910390f35b61014860048036038101906101439190610f62565b61042e565b6040516101559190610fbd565b60405180910390f35b610166610451565b6040516101739190610fe7565b60405180910390f35b61019660048036038101906101919190611002565b61045b565b6040516101a39190610fbd565b60405180910390f35b6101b461048a565b6040516101c19190611071565b60405180910390f35b6101e460048036038101906101df91906111c1565b610493565b005b61020060048036038101906101fb9190610f62565b6104ad565b60405161020d9190610fbd565b60405180910390f35b610230600480360381019061022b919061120a565b6104e4565b60405161023d9190610fbd565b60405180910390f35b610260600480360381019061025b919061120a565b61053e565b60405161026d9190610fe7565b60405180910390f35b61027e610586565b60405161028b9190611246565b60405180910390f35b61029c6105ac565b6040516102a99190611246565b60405180910390f35b6102ba6105d2565b6040516102c79190610e98565b60405180910390f35b6102ea60048036038101906102e59190610f62565b610664565b6040516102f79190610fbd565b60405180910390f35b61031a60048036038101906103159190610f62565b6106db565b6040516103279190610fbd565b60405180910390f35b6103386106fe565b6040516103459190611246565b60405180910390f35b61036860048036038101906103639190611261565b610728565b6040516103759190610fe7565b60405180910390f35b6103866107af565b6040516103939190610e98565b60405180910390f35b6060600380546103ab906112d0565b80601f01602080910402602001604051908101604052809291908181526020018280546103d7906112d0565b80156104245780601f106103f957610100808354040283529160200191610424565b820191906000526020600020905b81548152906001019060200180831161040757829003601f168201915b5050505050905090565b600080610439610874565b9050610446818585610883565b600191505092915050565b6000600254905090565b600080610466610874565b9050610473858285610a4e565b61047e858585610ada565b60019150509392505050565b60006012905090565b80600890805190602001906104a9929190610d5c565b5050565b6000806104b8610874565b90506104d98185856104ca8589610728565b6104d49190611331565b610883565b600191505092915050565b6000600560009054906101000a900473ffffffffffffffffffffffffffffffffffffffff1673ffffffffffffffffffffffffffffffffffffffff168273ffffffffffffffffffffffffffffffffffffffff16149050919050565b60008060008373ffffffffffffffffffffffffffffffffffffffff1673ffffffffffffffffffffffffffffffffffffffff168152602001908152602001600020549050919050565b600760009054906101000a900473ffffffffffffffffffffffffffffffffffffffff1681565b600660009054906101000a900473ffffffffffffffffffffffffffffffffffffffff1681565b6060600480546105e1906112d0565b80601f016020809104026020016040519081016040528092919081815260200182805461060d906112d0565b801561065a5780601f1061062f5761010080835404028352916020019161065a565b820191906000526020600020905b81548152906001019060200180831161063d57829003601f168201915b5050505050905090565b60008061066f610874565b9050600061067d8286610728565b9050838110156106c2576040517f08c379a00000000000000000000000000000000000000000000000000000000081526004016106b9906113f9565b60405180910390fd5b6106cf8286868403610883565b60019250505092915050565b6000806106e6610874565b90506106f3818585610ada565b600191505092915050565b6000600560009054906101000a900473ffffffffffffffffffffffffffffffffffffffff16905090565b6000600160008473ffffffffffffffffffffffffffffffffffffffff1673ffffffffffffffffffffffffffffffffffffffff16815260200190815260200160002060008373ffffffffffffffffffffffffffffffffffffffff1673ffffffffffffffffffffffffffffffffffffffff16815260200190815260200160002054905092915050565b600880546107bc906112d0565b80601f01602080910402602001604051908101604052809291908181526020018280546107e8906112d0565b80156108355780601f1061080a57610100808354040283529160200191610835565b820191906000526020600020905b81548152906001019060200180831161081857829003601f168201915b505050505081565b600060146000369050101580156108595750610858336104e4565b5b1561086d57601436033560601c9050610871565b3390505b90565b600061087e61083d565b905090565b600073ffffffffffffffffffffffffffffffffffffffff168373ffffffffffffffffffffffffffffffffffffffff1614156108f3576040517f08c379a00000000000000000000000000000000000000000000000000000000081526004016108ea9061148b565b60405180910390fd5b600073ffffffffffffffffffffffffffffffffffffffff168273ffffffffffffffffffffffffffffffffffffffff161415610963576040517f08c379a000000000000000000000000000000000000000000000000000000000815260040161095a9061151d565b60405180910390fd5b80600160008573ffffffffffffffffffffffffffffffffffffffff1673ffffffffffffffffffffffffffffffffffffffff16815260200190815260200160002060008473ffffffffffffffffffffffffffffffffffffffff1673ffffffffffffffffffffffffffffffffffffffff168152602001908152602001600020819055508173ffffffffffffffffffffffffffffffffffffffff168373ffffffffffffffffffffffffffffffffffffffff167f8c5be1e5ebec7d5bd14f71427d1e84f3dd0314c0f7b2291e5b200ac8c7c3b92583604051610a419190610fe7565b60405180910390a3505050565b6000610a5a8484610728565b90507fffffffffffffffffffffffffffffffffffffffffffffffffffffffffffffffff8114610ad45781811015610ac6576040517f08c379a0000000000000000000000000000000000000000000000000000000008152600401610abd90611589565b60405180910390fd5b610ad38484848403610883565b5b50505050565b600073ffffffffffffffffffffffffffffffffffffffff168373ffffffffffffffffffffffffffffffffffffffff161415610b4a576040517f08c379a0000000000000000000000000000000000000000000000000000000008152600401610b419061161b565b60405180910390fd5b600073ffffffffffffffffffffffffffffffffffffffff168273ffffffffffffffffffffffffffffffffffffffff161415610bba576040517f08c379a0000000000000000000000000000000000000000000000000000000008152600401610bb1906116ad565b60405180910390fd5b610bc5838383610d52565b60008060008573ffffffffffffffffffffffffffffffffffffffff1673ffffffffffffffffffffffffffffffffffffffff16815260200190815260200160002054905081811015610c4b576040517f08c379a0000000000000000000000000000000000000000000000000000000008152600401610c429061173f565b60405180910390fd5b8181036000808673ffffffffffffffffffffffffffffffffffffffff1673ffffffffffffffffffffffffffffffffffffffff16815260200190815260200160002081905550816000808573ffffffffffffffffffffffffffffffffffffffff1673ffffffffffffffffffffffffffffffffffffffff168152602001908152602001600020600082825401925050819055508273ffffffffffffffffffffffffffffffffffffffff168473ffffffffffffffffffffffffffffffffffffffff167fddf252ad1be2c89b69c2b068fc378daa952ba7f163c4a11628f55a4df523b3ef84604051610d399190610fe7565b60405180910390a3610d4c848484610d57565b50505050565b505050565b505050565b828054610d68906112d0565b90600052602060002090601f016020900481019282610d8a5760008555610dd1565b82601f10610da357805160ff1916838001178555610dd1565b82800160010185558215610dd1579182015b82811115610dd0578251825591602001919060010190610db5565b5b509050610dde9190610de2565b5090565b5b80821115610dfb576000816000905550600101610de3565b5090565b600081519050919050565b600082825260208201905092915050565b60005b83811015610e39578082015181840152602081019050610e1e565b83811115610e48576000848401525b50505050565b6000601f19601f8301169050919050565b6000610e6a82610dff565b610e748185610e0a565b9350610e84818560208601610e1b565b610e8d81610e4e565b840191505092915050565b60006020820190508181036000830152610eb28184610e5f565b905092915050565b6000604051905090565b600080fd5b600080fd5b600073ffffffffffffffffffffffffffffffffffffffff82169050919050565b6000610ef982610ece565b9050919050565b610f0981610eee565b8114610f1457600080fd5b50565b600081359050610f2681610f00565b92915050565b6000819050919050565b610f3f81610f2c565b8114610f4a57600080fd5b50565b600081359050610f5c81610f36565b92915050565b60008060408385031215610f7957610f78610ec4565b5b6000610f8785828601610f17565b9250506020610f9885828601610f4d565b9150509250929050565b60008115159050919050565b610fb781610fa2565b82525050565b6000602082019050610fd26000830184610fae565b92915050565b610fe181610f2c565b82525050565b6000602082019050610ffc6000830184610fd8565b92915050565b60008060006060848603121561101b5761101a610ec4565b5b600061102986828701610f17565b935050602061103a86828701610f17565b925050604061104b86828701610f4d565b9150509250925092565b600060ff82169050919050565b61106b81611055565b82525050565b60006020820190506110866000830184611062565b92915050565b600080fd5b600080fd5b7f4e487b7100000000000000000000000000000000000000000000000000000000600052604160045260246000fd5b6110ce82610e4e565b810181811067ffffffffffffffff821117156110ed576110ec611096565b5b80604052505050565b6000611100610eba565b905061110c82826110c5565b919050565b600067ffffffffffffffff82111561112c5761112b611096565b5b61113582610e4e565b9050602081019050919050565b82818337600083830152505050565b600061116461115f84611111565b6110f6565b9050828152602081018484840111156111805761117f611091565b5b61118b848285611142565b509392505050565b600082601f8301126111a8576111a761108c565b5b81356111b8848260208601611151565b91505092915050565b6000602082840312156111d7576111d6610ec4565b5b600082013567ffffffffffffffff8111156111f5576111f4610ec9565b5b61120184828501611193565b91505092915050565b6000602082840312156112205761121f610ec4565b5b600061122e84828501610f17565b91505092915050565b61124081610eee565b82525050565b600060208201905061125b6000830184611237565b92915050565b6000806040838503121561127857611277610ec4565b5b600061128685828601610f17565b925050602061129785828601610f17565b9150509250929050565b7f4e487b7100000000000000000000000000000000000000000000000000000000600052602260045260246000fd5b600060028204905060018216806112e857607f821691505b602082108114156112fc576112fb6112a1565b5b50919050565b7f4e487b7100000000000000000000000000000000000000000000000000000000600052601160045260246000fd5b600061133c82610f2c565b915061134783610f2c565b9250827fffffffffffffffffffffffffffffffffffffffffffffffffffffffffffffffff0382111561137c5761137b611302565b5b828201905092915050565b7f45524332303a2064656372656173656420616c6c6f77616e63652062656c6f7760008201527f207a65726f000000000000000000000000000000000000000000000000000000602082015250565b60006113e3602583610e0a565b91506113ee82611387565b604082019050919050565b60006020820190508181036000830152611412816113d6565b9050919050565b7f45524332303a20617070726f76652066726f6d20746865207a65726f2061646460008201527f7265737300000000000000000000000000000000000000000000000000000000602082015250565b6000611475602483610e0a565b915061148082611419565b604082019050919050565b600060208201905081810360008301526114a481611468565b9050919050565b7f45524332303a20617070726f766520746f20746865207a65726f20616464726560008201527f7373000000000000000000000000000000000000000000000000000000000000602082015250565b6000611507602283610e0a565b9150611512826114ab565b604082019050919050565b60006020820190508181036000830152611536816114fa565b9050919050565b7f45524332303a20696e73756666696369656e7420616c6c6f77616e6365000000600082015250565b6000611573601d83610e0a565b915061157e8261153d565b602082019050919050565b600060208201905081810360008301526115a281611566565b9050919050565b7f45524332303a207472616e736665722066726f6d20746865207a65726f20616460008201527f6472657373000000000000000000000000000000000000000000000000000000602082015250565b6000611605602583610e0a565b9150611610826115a9565b604082019050919050565b60006020820190508181036000830152611634816115f8565b9050919050565b7f45524332303a207472616e7366657220746f20746865207a65726f206164647260008201527f6573730000000000000000000000000000000000000000000000000000000000602082015250565b6000611697602383610e0a565b91506116a28261163b565b604082019050919050565b600060208201905081810360008301526116c68161168a565b9050919050565b7f45524332303a207472616e7366657220616d6f756e742065786365656473206260008201527f616c616e63650000000000000000000000000000000000000000000000000000602082015250565b6000611729602683610e0a565b9150611734826116cd565b604082019050919050565b600060208201905081810360008301526117588161171c565b905091905056fea264697066735822122074f6489d5142ab06711a61d9bc19cba1f964b9b4f0e1dd781dbcbd3ce4744d9d64736f6c63430008090033",
  "linkReferences": {},
  "deployedLinkReferences": {}
}