{
  "_format": "hh-sol-artifact-1",
  "contractName": "TokenTest",
  "sourceName": "contracts/TokenTest.sol",
  "abi": [
    {
      "inputs": [],
      "stateMutability": "nonpayable",
      "type": "constructor"
    },
    {
      "anonymous": false,
      "inputs": [
        {
          "indexed": true,
          "internalType": "address",
          "name": "owner",
          "type": "address"
        },
        {
          "indexed": true,
          "internalType": "address",
          "name": "spender",
          "type": "address"
        },
        {
          "indexed": false,
          "internalType": "uint256",
          "name": "value",
          "type": "uint256"
        }
      ],
      "name": "Approval",
      "type": "event"
    },
    {
      "anonymous": false,
      "inputs": [
        {
          "indexed": true,
          "internalType": "address",
          "name": "from",
          "type": "address"
        },
        {
          "indexed": true,
          "internalType": "address",
          "name": "to",
          "type": "address"
        },
        {
          "indexed": false,
          "internalType": "uint256",
          "name": "value",
          "type": "uint256"
        }
      ],
      "name": "Transfer",
      "type": "event"
    },
    {
      "inputs": [
        {
          "internalType": "address",
          "name": "owner",
          "type": "address"
        },
        {
          "internalType": "address",
          "name": "spender",
          "type": "address"
        }
      ],
      "name": "allowance",
      "outputs": [
        {
          "internalType": "uint256",
          "name": "",
          "type": "uint256"
        }
      ],
      "stateMutability": "view",
      "type": "function"
    },
    {
      "inputs": [
        {
          "internalType": "address",
          "name": "spender",
          "type": "address"
        },
        {
          "internalType": "uint256",
          "name": "amount",
          "type": "uint256"
        }
      ],
      "name": "approve",
      "outputs": [
        {
          "internalType": "bool",
          "name": "",
          "type": "bool"
        }
      ],
      "stateMutability": "nonpayable",
      "type": "function"
    },
    {
      "inputs": [
        {
          "internalType": "address",
          "name": "account",
          "type": "address"
        }
      ],
      "name": "balanceOf",
      "outputs": [
        {
          "internalType": "uint256",
          "name": "",
          "type": "uint256"
        }
      ],
      "stateMutability": "view",
      "type": "function"
    },
    {
      "inputs": [],
      "name": "decimals",
      "outputs": [
        {
          "internalType": "uint8",
          "name": "",
          "type": "uint8"
        }
      ],
      "stateMutability": "view",
      "type": "function"
    },
    {
      "inputs": [
        {
          "internalType": "address",
          "name": "spender",
          "type": "address"
        },
        {
          "internalType": "uint256",
          "name": "subtractedValue",
          "type": "uint256"
        }
      ],
      "name": "decreaseAllowance",
      "outputs": [
        {
          "internalType": "bool",
          "name": "",
          "type": "bool"
        }
      ],
      "stateMutability": "nonpayable",
      "type": "function"
    },
    {
      "inputs": [],
      "name": "getTrustedForwarder",
      "outputs": [
        {
          "internalType": "address",
          "name": "forwarder",
          "type": "address"
        }
      ],
      "stateMutability": "view",
      "type": "function"
    },
    {
      "inputs": [
        {
          "internalType": "address",
          "name": "spender",
          "type": "address"
        },
        {
          "internalType": "uint256",
          "name": "addedValue",
          "type": "uint256"
        }
      ],
      "name": "increaseAllowance",
      "outputs": [
        {
          "internalType": "bool",
          "name": "",
          "type": "bool"
        }
      ],
      "stateMutability": "nonpayable",
      "type": "function"
    },
    {
      "inputs": [
        {
          "internalType": "address",
          "name": "forwarder",
          "type": "address"
        }
      ],
      "name": "isTrustedForwarder",
      "outputs": [
        {
          "internalType": "bool",
          "name": "",
          "type": "bool"
        }
      ],
      "stateMutability": "view",
      "type": "function"
    },
    {
      "inputs": [],
      "name": "name",
      "outputs": [
        {
          "internalType": "string",
          "name": "",
          "type": "string"
        }
      ],
      "stateMutability": "view",
      "type": "function"
    },
    {
      "inputs": [
        {
          "internalType": "address",
          "name": "_trustedForwarder",
          "type": "address"
        }
      ],
      "name": "setTrustedForwarder",
      "outputs": [],
      "stateMutability": "nonpayable",
      "type": "function"
    },
    {
      "inputs": [],
      "name": "symbol",
      "outputs": [
        {
          "internalType": "string",
          "name": "",
          "type": "string"
        }
      ],
      "stateMutability": "view",
      "type": "function"
    },
    {
      "inputs": [],
      "name": "totalSupply",
      "outputs": [
        {
          "internalType": "uint256",
          "name": "",
          "type": "uint256"
        }
      ],
      "stateMutability": "view",
      "type": "function"
    },
    {
      "inputs": [
        {
          "internalType": "address",
          "name": "to",
          "type": "address"
        },
        {
          "internalType": "uint256",
          "name": "amount",
          "type": "uint256"
        }
      ],
      "name": "transfer",
      "outputs": [
        {
          "internalType": "bool",
          "name": "",
          "type": "bool"
        }
      ],
      "stateMutability": "nonpayable",
      "type": "function"
    },
    {
      "inputs": [
        {
          "internalType": "address",
          "name": "from",
          "type": "address"
        },
        {
          "internalType": "address",
          "name": "to",
          "type": "address"
        },
        {
          "internalType": "uint256",
          "name": "amount",
          "type": "uint256"
        }
      ],
      "name": "transferFrom",
      "outputs": [
        {
          "internalType": "bool",
          "name": "",
          "type": "bool"
        }
      ],
      "stateMutability": "nonpayable",
      "type": "function"
    },
    {
      "inputs": [],
      "name": "trustedForwarder",
      "outputs": [
        {
          "internalType": "address",
          "name": "",
          "type": "address"
        }
      ],
      "stateMutability": "view",
      "type": "function"
    },
    {
      "inputs": [
        {
          "internalType": "uint256",
          "name": "_supply",
          "type": "uint256"
        }
      ],
      "name": "updateSupply",
      "outputs": [],
      "stateMutability": "nonpayable",
      "type": "function"
    }
  ],
  "bytecode": "0x60806040523480156200001157600080fd5b506040518060400160405280600981526020017f546f6b656e5465737400000000000000000000000000000000000000000000008152506040518060400160405280600281526020017f545400000000000000000000000000000000000000000000000000000000000081525081600390805190602001906200009692919062000379565b508060049080519060200190620000af92919062000379565b505050620000c26200014960201b60201c565b600660006101000a81548173ffffffffffffffffffffffffffffffffffffffff021916908373ffffffffffffffffffffffffffffffffffffffff16021790555062000143620001166200014960201b60201c565b6012600a620001269190620005b6565b6305f5e10062000137919062000607565b6200016560201b60201c565b620007db565b600062000160620002d360201b620008e51760201c565b905090565b600073ffffffffffffffffffffffffffffffffffffffff168273ffffffffffffffffffffffffffffffffffffffff161415620001d8576040517f08c379a0000000000000000000000000000000000000000000000000000000008152600401620001cf90620006c9565b60405180910390fd5b620001ec600083836200031560201b60201c565b8060026000828254620002009190620006eb565b92505081905550806000808473ffffffffffffffffffffffffffffffffffffffff1673ffffffffffffffffffffffffffffffffffffffff168152602001908152602001600020600082825401925050819055508173ffffffffffffffffffffffffffffffffffffffff16600073ffffffffffffffffffffffffffffffffffffffff167fddf252ad1be2c89b69c2b068fc378daa952ba7f163c4a11628f55a4df523b3ef83604051620002b3919062000759565b60405180910390a3620002cf600083836200031a60201b60201c565b5050565b60006014600036905010158015620002f85750620002f7336200031f60201b60201c565b5b156200030e57601436033560601c905062000312565b3390505b90565b505050565b505050565b6000600560009054906101000a900473ffffffffffffffffffffffffffffffffffffffff1673ffffffffffffffffffffffffffffffffffffffff168273ffffffffffffffffffffffffffffffffffffffff16149050919050565b8280546200038790620007a5565b90600052602060002090601f016020900481019282620003ab5760008555620003f7565b82601f10620003c657805160ff1916838001178555620003f7565b82800160010185558215620003f7579182015b82811115620003f6578251825591602001919060010190620003d9565b5b5090506200040691906200040a565b5090565b5b80821115620004255760008160009055506001016200040b565b5090565b7f4e487b7100000000000000000000000000000000000000000000000000000000600052601160045260246000fd5b60008160011c9050919050565b6000808291508390505b6001851115620004b7578086048111156200048f576200048e62000429565b5b60018516156200049f5780820291505b8081029050620004af8562000458565b94506200046f565b94509492505050565b600082620004d25760019050620005a5565b81620004e25760009050620005a5565b8160018114620004fb576002811462000506576200053c565b6001915050620005a5565b60ff8411156200051b576200051a62000429565b5b8360020a91508482111562000535576200053462000429565b5b50620005a5565b5060208310610133831016604e8410600b8410161715620005765782820a90508381111562000570576200056f62000429565b5b620005a5565b62000585848484600162000465565b925090508184048111156200059f576200059e62000429565b5b81810290505b9392505050565b6000819050919050565b6000620005c382620005ac565b9150620005d083620005ac565b9250620005ff7fffffffffffffffffffffffffffffffffffffffffffffffffffffffffffffffff8484620004c0565b905092915050565b60006200061482620005ac565b91506200062183620005ac565b9250817fffffffffffffffffffffffffffffffffffffffffffffffffffffffffffffffff04831182151516156200065d576200065c62000429565b5b828202905092915050565b600082825260208201905092915050565b7f45524332303a206d696e7420746f20746865207a65726f206164647265737300600082015250565b6000620006b1601f8362000668565b9150620006be8262000679565b602082019050919050565b60006020820190508181036000830152620006e481620006a2565b9050919050565b6000620006f882620005ac565b91506200070583620005ac565b9250827fffffffffffffffffffffffffffffffffffffffffffffffffffffffffffffffff038211156200073d576200073c62000429565b5b828201905092915050565b6200075381620005ac565b82525050565b600060208201905062000770600083018462000748565b92915050565b7f4e487b7100000000000000000000000000000000000000000000000000000000600052602260045260246000fd5b60006002820490506001821680620007be57607f821691505b60208210811415620007d557620007d462000776565b5b50919050565b61188f80620007eb6000396000f3fe608060405234801561001057600080fd5b50600436106101005760003560e01c806370a0823111610097578063a9059cbb11610066578063a9059cbb146102d7578063ce1b815f14610307578063da74222814610325578063dd62ed3e1461034157610100565b806370a082311461023b5780637da0a8771461026b57806395d89b4114610289578063a457c2d7146102a757610100565b8063313ce567116100d3578063313ce567146101a157806339509351146101bf578063572b6c05146101ef5780636bd080491461021f57610100565b806306fdde0314610105578063095ea7b31461012357806318160ddd1461015357806323b872dd14610171575b600080fd5b61010d610371565b60405161011a9190610ff4565b60405180910390f35b61013d600480360381019061013891906110af565b610403565b60405161014a919061110a565b60405180910390f35b61015b610426565b6040516101689190611134565b60405180910390f35b61018b6004803603810190610186919061114f565b610430565b604051610198919061110a565b60405180910390f35b6101a961045f565b6040516101b691906111be565b60405180910390f35b6101d960048036038101906101d491906110af565b610468565b6040516101e6919061110a565b60405180910390f35b610209600480360381019061020491906111d9565b61049f565b604051610216919061110a565b60405180910390f35b61023960048036038101906102349190611206565b6104f9565b005b610255600480360381019061025091906111d9565b6105bf565b6040516102629190611134565b60405180910390f35b610273610607565b6040516102809190611242565b60405180910390f35b61029161062d565b60405161029e9190610ff4565b60405180910390f35b6102c160048036038101906102bc91906110af565b6106bf565b6040516102ce919061110a565b60405180910390f35b6102f160048036038101906102ec91906110af565b610736565b6040516102fe919061110a565b60405180910390f35b61030f610759565b60405161031c9190611242565b60405180910390f35b61033f600480360381019061033a91906111d9565b610783565b005b61035b6004803603810190610356919061125d565b61085e565b6040516103689190611134565b60405180910390f35b606060038054610380906112cc565b80601f01602080910402602001604051908101604052809291908181526020018280546103ac906112cc565b80156103f95780601f106103ce576101008083540402835291602001916103f9565b820191906000526020600020905b8154815290600101906020018083116103dc57829003601f168201915b5050505050905090565b60008061040e61091c565b905061041b81858561092b565b600191505092915050565b6000600254905090565b60008061043b61091c565b9050610448858285610af6565b610453858585610b82565b60019150509392505050565b60006012905090565b60008061047361091c565b9050610494818585610485858961085e565b61048f919061132d565b61092b565b600191505092915050565b6000600560009054906101000a900473ffffffffffffffffffffffffffffffffffffffff1673ffffffffffffffffffffffffffffffffffffffff168273ffffffffffffffffffffffffffffffffffffffff16149050919050565b600660009054906101000a900473ffffffffffffffffffffffffffffffffffffffff1673ffffffffffffffffffffffffffffffffffffffff1661053a61091c565b73ffffffffffffffffffffffffffffffffffffffff1614610590576040517f08c379a0000000000000000000000000000000000000000000000000000000008152600401610587906113f5565b60405180910390fd5b6105bc600660009054906101000a900473ffffffffffffffffffffffffffffffffffffffff1682610dfa565b50565b60008060008373ffffffffffffffffffffffffffffffffffffffff1673ffffffffffffffffffffffffffffffffffffffff168152602001908152602001600020549050919050565b600760009054906101000a900473ffffffffffffffffffffffffffffffffffffffff1681565b60606004805461063c906112cc565b80601f0160208091040260200160405190810160405280929190818152602001828054610668906112cc565b80156106b55780601f1061068a576101008083540402835291602001916106b5565b820191906000526020600020905b81548152906001019060200180831161069857829003601f168201915b5050505050905090565b6000806106ca61091c565b905060006106d8828661085e565b90508381101561071d576040517f08c379a000000000000000000000000000000000000000000000000000000000815260040161071490611487565b60405180910390fd5b61072a828686840361092b565b60019250505092915050565b60008061074161091c565b905061074e818585610b82565b600191505092915050565b6000600560009054906101000a900473ffffffffffffffffffffffffffffffffffffffff16905090565b600660009054906101000a900473ffffffffffffffffffffffffffffffffffffffff1673ffffffffffffffffffffffffffffffffffffffff166107c461091c565b73ffffffffffffffffffffffffffffffffffffffff161461081a576040517f08c379a0000000000000000000000000000000000000000000000000000000008152600401610811906113f5565b60405180910390fd5b80600760006101000a81548173ffffffffffffffffffffffffffffffffffffffff021916908373ffffffffffffffffffffffffffffffffffffffff16021790555050565b6000600160008473ffffffffffffffffffffffffffffffffffffffff1673ffffffffffffffffffffffffffffffffffffffff16815260200190815260200160002060008373ffffffffffffffffffffffffffffffffffffffff1673ffffffffffffffffffffffffffffffffffffffff16815260200190815260200160002054905092915050565b6000601460003690501015801561090157506109003361049f565b5b1561091557601436033560601c9050610919565b3390505b90565b60006109266108e5565b905090565b600073ffffffffffffffffffffffffffffffffffffffff168373ffffffffffffffffffffffffffffffffffffffff16141561099b576040517f08c379a000000000000000000000000000000000000000000000000000000000815260040161099290611519565b60405180910390fd5b600073ffffffffffffffffffffffffffffffffffffffff168273ffffffffffffffffffffffffffffffffffffffff161415610a0b576040517f08c379a0000000000000000000000000000000000000000000000000000000008152600401610a02906115ab565b60405180910390fd5b80600160008573ffffffffffffffffffffffffffffffffffffffff1673ffffffffffffffffffffffffffffffffffffffff16815260200190815260200160002060008473ffffffffffffffffffffffffffffffffffffffff1673ffffffffffffffffffffffffffffffffffffffff168152602001908152602001600020819055508173ffffffffffffffffffffffffffffffffffffffff168373ffffffffffffffffffffffffffffffffffffffff167f8c5be1e5ebec7d5bd14f71427d1e84f3dd0314c0f7b2291e5b200ac8c7c3b92583604051610ae99190611134565b60405180910390a3505050565b6000610b02848461085e565b90507fffffffffffffffffffffffffffffffffffffffffffffffffffffffffffffffff8114610b7c5781811015610b6e576040517f08c379a0000000000000000000000000000000000000000000000000000000008152600401610b6590611617565b60405180910390fd5b610b7b848484840361092b565b5b50505050565b600073ffffffffffffffffffffffffffffffffffffffff168373ffffffffffffffffffffffffffffffffffffffff161415610bf2576040517f08c379a0000000000000000000000000000000000000000000000000000000008152600401610be9906116a9565b60405180910390fd5b600073ffffffffffffffffffffffffffffffffffffffff168273ffffffffffffffffffffffffffffffffffffffff161415610c62576040517f08c379a0000000000000000000000000000000000000000000000000000000008152600401610c599061173b565b60405180910390fd5b610c6d838383610f51565b60008060008573ffffffffffffffffffffffffffffffffffffffff1673ffffffffffffffffffffffffffffffffffffffff16815260200190815260200160002054905081811015610cf3576040517f08c379a0000000000000000000000000000000000000000000000000000000008152600401610cea906117cd565b60405180910390fd5b8181036000808673ffffffffffffffffffffffffffffffffffffffff1673ffffffffffffffffffffffffffffffffffffffff16815260200190815260200160002081905550816000808573ffffffffffffffffffffffffffffffffffffffff1673ffffffffffffffffffffffffffffffffffffffff168152602001908152602001600020600082825401925050819055508273ffffffffffffffffffffffffffffffffffffffff168473ffffffffffffffffffffffffffffffffffffffff167fddf252ad1be2c89b69c2b068fc378daa952ba7f163c4a11628f55a4df523b3ef84604051610de19190611134565b60405180910390a3610df4848484610f56565b50505050565b600073ffffffffffffffffffffffffffffffffffffffff168273ffffffffffffffffffffffffffffffffffffffff161415610e6a576040517f08c379a0000000000000000000000000000000000000000000000000000000008152600401610e6190611839565b60405180910390fd5b610e7660008383610f51565b8060026000828254610e88919061132d565b92505081905550806000808473ffffffffffffffffffffffffffffffffffffffff1673ffffffffffffffffffffffffffffffffffffffff168152602001908152602001600020600082825401925050819055508173ffffffffffffffffffffffffffffffffffffffff16600073ffffffffffffffffffffffffffffffffffffffff167fddf252ad1be2c89b69c2b068fc378daa952ba7f163c4a11628f55a4df523b3ef83604051610f399190611134565b60405180910390a3610f4d60008383610f56565b5050565b505050565b505050565b600081519050919050565b600082825260208201905092915050565b60005b83811015610f95578082015181840152602081019050610f7a565b83811115610fa4576000848401525b50505050565b6000601f19601f8301169050919050565b6000610fc682610f5b565b610fd08185610f66565b9350610fe0818560208601610f77565b610fe981610faa565b840191505092915050565b6000602082019050818103600083015261100e8184610fbb565b905092915050565b600080fd5b600073ffffffffffffffffffffffffffffffffffffffff82169050919050565b60006110468261101b565b9050919050565b6110568161103b565b811461106157600080fd5b50565b6000813590506110738161104d565b92915050565b6000819050919050565b61108c81611079565b811461109757600080fd5b50565b6000813590506110a981611083565b92915050565b600080604083850312156110c6576110c5611016565b5b60006110d485828601611064565b92505060206110e58582860161109a565b9150509250929050565b60008115159050919050565b611104816110ef565b82525050565b600060208201905061111f60008301846110fb565b92915050565b61112e81611079565b82525050565b60006020820190506111496000830184611125565b92915050565b60008060006060848603121561116857611167611016565b5b600061117686828701611064565b935050602061118786828701611064565b92505060406111988682870161109a565b9150509250925092565b600060ff82169050919050565b6111b8816111a2565b82525050565b60006020820190506111d360008301846111af565b92915050565b6000602082840312156111ef576111ee611016565b5b60006111fd84828501611064565b91505092915050565b60006020828403121561121c5761121b611016565b5b600061122a8482850161109a565b91505092915050565b61123c8161103b565b82525050565b60006020820190506112576000830184611233565b92915050565b6000806040838503121561127457611273611016565b5b600061128285828601611064565b925050602061129385828601611064565b9150509250929050565b7f4e487b7100000000000000000000000000000000000000000000000000000000600052602260045260246000fd5b600060028204905060018216806112e457607f821691505b602082108114156112f8576112f761129d565b5b50919050565b7f4e487b7100000000000000000000000000000000000000000000000000000000600052601160045260246000fd5b600061133882611079565b915061134383611079565b9250827fffffffffffffffffffffffffffffffffffffffffffffffffffffffffffffffff03821115611378576113776112fe565b5b828201905092915050565b7f4f6e6c7920746865206f776e65722063616e20706572666f726d20746869732060008201527f616374696f6e0000000000000000000000000000000000000000000000000000602082015250565b60006113df602683610f66565b91506113ea82611383565b604082019050919050565b6000602082019050818103600083015261140e816113d2565b9050919050565b7f45524332303a2064656372656173656420616c6c6f77616e63652062656c6f7760008201527f207a65726f000000000000000000000000000000000000000000000000000000602082015250565b6000611471602583610f66565b915061147c82611415565b604082019050919050565b600060208201905081810360008301526114a081611464565b9050919050565b7f45524332303a20617070726f76652066726f6d20746865207a65726f2061646460008201527f7265737300000000000000000000000000000000000000000000000000000000602082015250565b6000611503602483610f66565b915061150e826114a7565b604082019050919050565b60006020820190508181036000830152611532816114f6565b9050919050565b7f45524332303a20617070726f766520746f20746865207a65726f20616464726560008201527f7373000000000000000000000000000000000000000000000000000000000000602082015250565b6000611595602283610f66565b91506115a082611539565b604082019050919050565b600060208201905081810360008301526115c481611588565b9050919050565b7f45524332303a20696e73756666696369656e7420616c6c6f77616e6365000000600082015250565b6000611601601d83610f66565b915061160c826115cb565b602082019050919050565b60006020820190508181036000830152611630816115f4565b9050919050565b7f45524332303a207472616e736665722066726f6d20746865207a65726f20616460008201527f6472657373000000000000000000000000000000000000000000000000000000602082015250565b6000611693602583610f66565b915061169e82611637565b604082019050919050565b600060208201905081810360008301526116c281611686565b9050919050565b7f45524332303a207472616e7366657220746f20746865207a65726f206164647260008201527f6573730000000000000000000000000000000000000000000000000000000000602082015250565b6000611725602383610f66565b9150611730826116c9565b604082019050919050565b6000602082019050818103600083015261175481611718565b9050919050565b7f45524332303a207472616e7366657220616d6f756e742065786365656473206260008201527f616c616e63650000000000000000000000000000000000000000000000000000602082015250565b60006117b7602683610f66565b91506117c28261175b565b604082019050919050565b600060208201905081810360008301526117e6816117aa565b9050919050565b7f45524332303a206d696e7420746f20746865207a65726f206164647265737300600082015250565b6000611823601f83610f66565b915061182e826117ed565b602082019050919050565b6000602082019050818103600083015261185281611816565b905091905056fea2646970667358221220c8f69330e482e11c28e2dc2a290c6d7f2e9c6a485d81f4427f18e727d362e46064736f6c63430008090033",
  "linkReferences": {},
  "deployedLinkReferences": {}
}