{
  "_format": "hh-sol-artifact-1",
  "contractName": "TokenTest",
  "sourceName": "contracts/TokenTest.sol",
  "abi": [
    {
      "inputs": [
        {
          "internalType": "address",
          "name": "_trustedForwarder",
          "type": "address"
        }
      ],
      "stateMutability": "nonpayable",
      "type": "constructor"
    },
    {
      "anonymous": false,
      "inputs": [
        {
          "indexed": true,
          "internalType": "address",
          "name": "owner",
          "type": "address"
        },
        {
          "indexed": true,
          "internalType": "address",
          "name": "spender",
          "type": "address"
        },
        {
          "indexed": false,
          "internalType": "uint256",
          "name": "value",
          "type": "uint256"
        }
      ],
      "name": "Approval",
      "type": "event"
    },
    {
      "anonymous": false,
      "inputs": [
        {
          "indexed": true,
          "internalType": "address",
          "name": "from",
          "type": "address"
        },
        {
          "indexed": true,
          "internalType": "address",
          "name": "to",
          "type": "address"
        },
        {
          "indexed": false,
          "internalType": "uint256",
          "name": "value",
          "type": "uint256"
        }
      ],
      "name": "Transfer",
      "type": "event"
    },
    {
      "inputs": [
        {
          "internalType": "address",
          "name": "owner",
          "type": "address"
        },
        {
          "internalType": "address",
          "name": "spender",
          "type": "address"
        }
      ],
      "name": "allowance",
      "outputs": [
        {
          "internalType": "uint256",
          "name": "",
          "type": "uint256"
        }
      ],
      "stateMutability": "view",
      "type": "function"
    },
    {
      "inputs": [
        {
          "internalType": "address",
          "name": "spender",
          "type": "address"
        },
        {
          "internalType": "uint256",
          "name": "amount",
          "type": "uint256"
        }
      ],
      "name": "approve",
      "outputs": [
        {
          "internalType": "bool",
          "name": "",
          "type": "bool"
        }
      ],
      "stateMutability": "nonpayable",
      "type": "function"
    },
    {
      "inputs": [
        {
          "internalType": "address",
          "name": "account",
          "type": "address"
        }
      ],
      "name": "balanceOf",
      "outputs": [
        {
          "internalType": "uint256",
          "name": "",
          "type": "uint256"
        }
      ],
      "stateMutability": "view",
      "type": "function"
    },
    {
      "inputs": [],
      "name": "decimals",
      "outputs": [
        {
          "internalType": "uint8",
          "name": "",
          "type": "uint8"
        }
      ],
      "stateMutability": "view",
      "type": "function"
    },
    {
      "inputs": [
        {
          "internalType": "address",
          "name": "spender",
          "type": "address"
        },
        {
          "internalType": "uint256",
          "name": "subtractedValue",
          "type": "uint256"
        }
      ],
      "name": "decreaseAllowance",
      "outputs": [
        {
          "internalType": "bool",
          "name": "",
          "type": "bool"
        }
      ],
      "stateMutability": "nonpayable",
      "type": "function"
    },
    {
      "inputs": [],
      "name": "getTrustedForwarder",
      "outputs": [
        {
          "internalType": "address",
          "name": "forwarder",
          "type": "address"
        }
      ],
      "stateMutability": "view",
      "type": "function"
    },
    {
      "inputs": [
        {
          "internalType": "address",
          "name": "spender",
          "type": "address"
        },
        {
          "internalType": "uint256",
          "name": "addedValue",
          "type": "uint256"
        }
      ],
      "name": "increaseAllowance",
      "outputs": [
        {
          "internalType": "bool",
          "name": "",
          "type": "bool"
        }
      ],
      "stateMutability": "nonpayable",
      "type": "function"
    },
    {
      "inputs": [
        {
          "internalType": "address",
          "name": "forwarder",
          "type": "address"
        }
      ],
      "name": "isTrustedForwarder",
      "outputs": [
        {
          "internalType": "bool",
          "name": "",
          "type": "bool"
        }
      ],
      "stateMutability": "view",
      "type": "function"
    },
    {
      "inputs": [],
      "name": "message",
      "outputs": [
        {
          "internalType": "string",
          "name": "",
          "type": "string"
        }
      ],
      "stateMutability": "view",
      "type": "function"
    },
    {
      "inputs": [],
      "name": "name",
      "outputs": [
        {
          "internalType": "string",
          "name": "",
          "type": "string"
        }
      ],
      "stateMutability": "view",
      "type": "function"
    },
    {
      "inputs": [],
      "name": "owner",
      "outputs": [
        {
          "internalType": "address",
          "name": "",
          "type": "address"
        }
      ],
      "stateMutability": "view",
      "type": "function"
    },
    {
      "inputs": [
        {
          "internalType": "string",
          "name": "_message",
          "type": "string"
        }
      ],
      "name": "setMessage",
      "outputs": [],
      "stateMutability": "nonpayable",
      "type": "function"
    },
    {
      "inputs": [],
      "name": "symbol",
      "outputs": [
        {
          "internalType": "string",
          "name": "",
          "type": "string"
        }
      ],
      "stateMutability": "view",
      "type": "function"
    },
    {
      "inputs": [],
      "name": "totalSupply",
      "outputs": [
        {
          "internalType": "uint256",
          "name": "",
          "type": "uint256"
        }
      ],
      "stateMutability": "view",
      "type": "function"
    },
    {
      "inputs": [
        {
          "internalType": "address",
          "name": "to",
          "type": "address"
        },
        {
          "internalType": "uint256",
          "name": "amount",
          "type": "uint256"
        }
      ],
      "name": "transfer",
      "outputs": [
        {
          "internalType": "bool",
          "name": "",
          "type": "bool"
        }
      ],
      "stateMutability": "nonpayable",
      "type": "function"
    },
    {
      "inputs": [
        {
          "internalType": "address",
          "name": "from",
          "type": "address"
        },
        {
          "internalType": "address",
          "name": "to",
          "type": "address"
        },
        {
          "internalType": "uint256",
          "name": "amount",
          "type": "uint256"
        }
      ],
      "name": "transferFrom",
      "outputs": [
        {
          "internalType": "bool",
          "name": "",
          "type": "bool"
        }
      ],
      "stateMutability": "nonpayable",
      "type": "function"
    },
    {
      "inputs": [
        {
          "internalType": "address",
          "name": "recipient",
          "type": "address"
        },
        {
          "internalType": "uint256",
          "name": "amount",
          "type": "uint256"
        }
      ],
      "name": "transferTokens",
      "outputs": [],
      "stateMutability": "nonpayable",
      "type": "function"
    },
    {
      "inputs": [],
      "name": "trustedForwarder",
      "outputs": [
        {
          "internalType": "address",
          "name": "",
          "type": "address"
        }
      ],
      "stateMutability": "view",
      "type": "function"
    },
    {
      "inputs": [
        {
          "internalType": "uint256",
          "name": "supply",
          "type": "uint256"
        }
      ],
      "name": "updateSupply",
      "outputs": [],
      "stateMutability": "nonpayable",
      "type": "function"
    }
  ],
  "bytecode": "0x60806040523480156200001157600080fd5b5060405162002321380380620023218339818101604052810190620000379190620004fa565b6040518060400160405280600981526020017f546f6b656e5465737400000000000000000000000000000000000000000000008152506040518060400160405280600281526020017f54540000000000000000000000000000000000000000000000000000000000008152508160039080519060200190620000bb929190620003e0565b508060049080519060200190620000d4929190620003e0565b505050620000e7620001b060201b60201c565b600660006101000a81548173ffffffffffffffffffffffffffffffffffffffff021916908373ffffffffffffffffffffffffffffffffffffffff160217905550620001686200013b620001b060201b60201c565b6012600a6200014b9190620006b9565b6305f5e1006200015c91906200070a565b620001cc60201b60201c565b80600760006101000a81548173ffffffffffffffffffffffffffffffffffffffff021916908373ffffffffffffffffffffffffffffffffffffffff16021790555050620008de565b6000620001c76200033a60201b620008eb1760201c565b905090565b600073ffffffffffffffffffffffffffffffffffffffff168273ffffffffffffffffffffffffffffffffffffffff1614156200023f576040517f08c379a00000000000000000000000000000000000000000000000000000000081526004016200023690620007cc565b60405180910390fd5b62000253600083836200037c60201b60201c565b8060026000828254620002679190620007ee565b92505081905550806000808473ffffffffffffffffffffffffffffffffffffffff1673ffffffffffffffffffffffffffffffffffffffff168152602001908152602001600020600082825401925050819055508173ffffffffffffffffffffffffffffffffffffffff16600073ffffffffffffffffffffffffffffffffffffffff167fddf252ad1be2c89b69c2b068fc378daa952ba7f163c4a11628f55a4df523b3ef836040516200031a91906200085c565b60405180910390a362000336600083836200038160201b60201c565b5050565b600060146000369050101580156200035f57506200035e336200038660201b60201c565b5b156200037557601436033560601c905062000379565b3390505b90565b505050565b505050565b6000600560009054906101000a900473ffffffffffffffffffffffffffffffffffffffff1673ffffffffffffffffffffffffffffffffffffffff168273ffffffffffffffffffffffffffffffffffffffff16149050919050565b828054620003ee90620008a8565b90600052602060002090601f0160209004810192826200041257600085556200045e565b82601f106200042d57805160ff19168380011785556200045e565b828001600101855582156200045e579182015b828111156200045d57825182559160200191906001019062000440565b5b5090506200046d919062000471565b5090565b5b808211156200048c57600081600090555060010162000472565b5090565b600080fd5b600073ffffffffffffffffffffffffffffffffffffffff82169050919050565b6000620004c28262000495565b9050919050565b620004d481620004b5565b8114620004e057600080fd5b50565b600081519050620004f481620004c9565b92915050565b60006020828403121562000513576200051262000490565b5b60006200052384828501620004e3565b91505092915050565b7f4e487b7100000000000000000000000000000000000000000000000000000000600052601160045260246000fd5b60008160011c9050919050565b6000808291508390505b6001851115620005ba578086048111156200059257620005916200052c565b5b6001851615620005a25780820291505b8081029050620005b2856200055b565b945062000572565b94509492505050565b600082620005d55760019050620006a8565b81620005e55760009050620006a8565b8160018114620005fe576002811462000609576200063f565b6001915050620006a8565b60ff8411156200061e576200061d6200052c565b5b8360020a9150848211156200063857620006376200052c565b5b50620006a8565b5060208310610133831016604e8410600b8410161715620006795782820a9050838111156200067357620006726200052c565b5b620006a8565b62000688848484600162000568565b92509050818404811115620006a257620006a16200052c565b5b81810290505b9392505050565b6000819050919050565b6000620006c682620006af565b9150620006d383620006af565b9250620007027fffffffffffffffffffffffffffffffffffffffffffffffffffffffffffffffff8484620005c3565b905092915050565b60006200071782620006af565b91506200072483620006af565b9250817fffffffffffffffffffffffffffffffffffffffffffffffffffffffffffffffff048311821515161562000760576200075f6200052c565b5b828202905092915050565b600082825260208201905092915050565b7f45524332303a206d696e7420746f20746865207a65726f206164647265737300600082015250565b6000620007b4601f836200076b565b9150620007c1826200077c565b602082019050919050565b60006020820190508181036000830152620007e781620007a5565b9050919050565b6000620007fb82620006af565b91506200080883620006af565b9250827fffffffffffffffffffffffffffffffffffffffffffffffffffffffffffffffff0382111562000840576200083f6200052c565b5b828201905092915050565b6200085681620006af565b82525050565b60006020820190506200087360008301846200084b565b92915050565b7f4e487b7100000000000000000000000000000000000000000000000000000000600052602260045260246000fd5b60006002820490506001821680620008c157607f821691505b60208210811415620008d857620008d762000879565b5b50919050565b611a3380620008ee6000396000f3fe608060405234801561001057600080fd5b50600436106101215760003560e01c806370a08231116100ad578063a9059cbb11610071578063a9059cbb14610332578063bec3fa1714610362578063ce1b815f1461037e578063dd62ed3e1461039c578063e21f37ce146103cc57610121565b806370a08231146102785780637da0a877146102a85780638da5cb5b146102c657806395d89b41146102e4578063a457c2d71461030257610121565b8063313ce567116100f4578063313ce567146101c2578063368b8772146101e057806339509351146101fc578063572b6c051461022c5780636bd080491461025c57610121565b806306fdde0314610126578063095ea7b31461014457806318160ddd1461017457806323b872dd14610192575b600080fd5b61012e6103ea565b60405161013b919061109d565b60405180910390f35b61015e60048036038101906101599190611167565b61047c565b60405161016b91906111c2565b60405180910390f35b61017c61049f565b60405161018991906111ec565b60405180910390f35b6101ac60048036038101906101a79190611207565b6104a9565b6040516101b991906111c2565b60405180910390f35b6101ca6104d8565b6040516101d79190611276565b60405180910390f35b6101fa60048036038101906101f591906113c6565b6104e1565b005b61021660048036038101906102119190611167565b6104fb565b60405161022391906111c2565b60405180910390f35b6102466004803603810190610241919061140f565b610532565b60405161025391906111c2565b60405180910390f35b6102766004803603810190610271919061143c565b61058c565b005b610292600480360381019061028d919061140f565b6105bb565b60405161029f91906111ec565b60405180910390f35b6102b0610603565b6040516102bd9190611478565b60405180910390f35b6102ce610629565b6040516102db9190611478565b60405180910390f35b6102ec61064f565b6040516102f9919061109d565b60405180910390f35b61031c60048036038101906103179190611167565b6106e1565b60405161032991906111c2565b60405180910390f35b61034c60048036038101906103479190611167565b610758565b60405161035991906111c2565b60405180910390f35b61037c60048036038101906103779190611167565b61077b565b005b6103866107ac565b6040516103939190611478565b60405180910390f35b6103b660048036038101906103b19190611493565b6107d6565b6040516103c391906111ec565b60405180910390f35b6103d461085d565b6040516103e1919061109d565b60405180910390f35b6060600380546103f990611502565b80601f016020809104026020016040519081016040528092919081815260200182805461042590611502565b80156104725780601f1061044757610100808354040283529160200191610472565b820191906000526020600020905b81548152906001019060200180831161045557829003601f168201915b5050505050905090565b600080610487610922565b9050610494818585610931565b600191505092915050565b6000600254905090565b6000806104b4610922565b90506104c1858285610afc565b6104cc858585610b88565b60019150509392505050565b60006012905090565b80600890805190602001906104f7929190610f61565b5050565b600080610506610922565b905061052781858561051885896107d6565b6105229190611563565b610931565b600191505092915050565b6000600560009054906101000a900473ffffffffffffffffffffffffffffffffffffffff1673ffffffffffffffffffffffffffffffffffffffff168273ffffffffffffffffffffffffffffffffffffffff16149050919050565b6105b8600660009054906101000a900473ffffffffffffffffffffffffffffffffffffffff1682610e00565b50565b60008060008373ffffffffffffffffffffffffffffffffffffffff1673ffffffffffffffffffffffffffffffffffffffff168152602001908152602001600020549050919050565b600760009054906101000a900473ffffffffffffffffffffffffffffffffffffffff1681565b600660009054906101000a900473ffffffffffffffffffffffffffffffffffffffff1681565b60606004805461065e90611502565b80601f016020809104026020016040519081016040528092919081815260200182805461068a90611502565b80156106d75780601f106106ac576101008083540402835291602001916106d7565b820191906000526020600020905b8154815290600101906020018083116106ba57829003601f168201915b5050505050905090565b6000806106ec610922565b905060006106fa82866107d6565b90508381101561073f576040517f08c379a00000000000000000000000000000000000000000000000000000000081526004016107369061162b565b60405180910390fd5b61074c8286868403610931565b60019250505092915050565b600080610763610922565b9050610770818585610b88565b600191505092915050565b6107a8600660009054906101000a900473ffffffffffffffffffffffffffffffffffffffff168383610b88565b5050565b6000600560009054906101000a900473ffffffffffffffffffffffffffffffffffffffff16905090565b6000600160008473ffffffffffffffffffffffffffffffffffffffff1673ffffffffffffffffffffffffffffffffffffffff16815260200190815260200160002060008373ffffffffffffffffffffffffffffffffffffffff1673ffffffffffffffffffffffffffffffffffffffff16815260200190815260200160002054905092915050565b6008805461086a90611502565b80601f016020809104026020016040519081016040528092919081815260200182805461089690611502565b80156108e35780601f106108b8576101008083540402835291602001916108e3565b820191906000526020600020905b8154815290600101906020018083116108c657829003601f168201915b505050505081565b60006014600036905010158015610907575061090633610532565b5b1561091b57601436033560601c905061091f565b3390505b90565b600061092c6108eb565b905090565b600073ffffffffffffffffffffffffffffffffffffffff168373ffffffffffffffffffffffffffffffffffffffff1614156109a1576040517f08c379a0000000000000000000000000000000000000000000000000000000008152600401610998906116bd565b60405180910390fd5b600073ffffffffffffffffffffffffffffffffffffffff168273ffffffffffffffffffffffffffffffffffffffff161415610a11576040517f08c379a0000000000000000000000000000000000000000000000000000000008152600401610a089061174f565b60405180910390fd5b80600160008573ffffffffffffffffffffffffffffffffffffffff1673ffffffffffffffffffffffffffffffffffffffff16815260200190815260200160002060008473ffffffffffffffffffffffffffffffffffffffff1673ffffffffffffffffffffffffffffffffffffffff168152602001908152602001600020819055508173ffffffffffffffffffffffffffffffffffffffff168373ffffffffffffffffffffffffffffffffffffffff167f8c5be1e5ebec7d5bd14f71427d1e84f3dd0314c0f7b2291e5b200ac8c7c3b92583604051610aef91906111ec565b60405180910390a3505050565b6000610b0884846107d6565b90507fffffffffffffffffffffffffffffffffffffffffffffffffffffffffffffffff8114610b825781811015610b74576040517f08c379a0000000000000000000000000000000000000000000000000000000008152600401610b6b906117bb565b60405180910390fd5b610b818484848403610931565b5b50505050565b600073ffffffffffffffffffffffffffffffffffffffff168373ffffffffffffffffffffffffffffffffffffffff161415610bf8576040517f08c379a0000000000000000000000000000000000000000000000000000000008152600401610bef9061184d565b60405180910390fd5b600073ffffffffffffffffffffffffffffffffffffffff168273ffffffffffffffffffffffffffffffffffffffff161415610c68576040517f08c379a0000000000000000000000000000000000000000000000000000000008152600401610c5f906118df565b60405180910390fd5b610c73838383610f57565b60008060008573ffffffffffffffffffffffffffffffffffffffff1673ffffffffffffffffffffffffffffffffffffffff16815260200190815260200160002054905081811015610cf9576040517f08c379a0000000000000000000000000000000000000000000000000000000008152600401610cf090611971565b60405180910390fd5b8181036000808673ffffffffffffffffffffffffffffffffffffffff1673ffffffffffffffffffffffffffffffffffffffff16815260200190815260200160002081905550816000808573ffffffffffffffffffffffffffffffffffffffff1673ffffffffffffffffffffffffffffffffffffffff168152602001908152602001600020600082825401925050819055508273ffffffffffffffffffffffffffffffffffffffff168473ffffffffffffffffffffffffffffffffffffffff167fddf252ad1be2c89b69c2b068fc378daa952ba7f163c4a11628f55a4df523b3ef84604051610de791906111ec565b60405180910390a3610dfa848484610f5c565b50505050565b600073ffffffffffffffffffffffffffffffffffffffff168273ffffffffffffffffffffffffffffffffffffffff161415610e70576040517f08c379a0000000000000000000000000000000000000000000000000000000008152600401610e67906119dd565b60405180910390fd5b610e7c60008383610f57565b8060026000828254610e8e9190611563565b92505081905550806000808473ffffffffffffffffffffffffffffffffffffffff1673ffffffffffffffffffffffffffffffffffffffff168152602001908152602001600020600082825401925050819055508173ffffffffffffffffffffffffffffffffffffffff16600073ffffffffffffffffffffffffffffffffffffffff167fddf252ad1be2c89b69c2b068fc378daa952ba7f163c4a11628f55a4df523b3ef83604051610f3f91906111ec565b60405180910390a3610f5360008383610f5c565b5050565b505050565b505050565b828054610f6d90611502565b90600052602060002090601f016020900481019282610f8f5760008555610fd6565b82601f10610fa857805160ff1916838001178555610fd6565b82800160010185558215610fd6579182015b82811115610fd5578251825591602001919060010190610fba565b5b509050610fe39190610fe7565b5090565b5b80821115611000576000816000905550600101610fe8565b5090565b600081519050919050565b600082825260208201905092915050565b60005b8381101561103e578082015181840152602081019050611023565b8381111561104d576000848401525b50505050565b6000601f19601f8301169050919050565b600061106f82611004565b611079818561100f565b9350611089818560208601611020565b61109281611053565b840191505092915050565b600060208201905081810360008301526110b78184611064565b905092915050565b6000604051905090565b600080fd5b600080fd5b600073ffffffffffffffffffffffffffffffffffffffff82169050919050565b60006110fe826110d3565b9050919050565b61110e816110f3565b811461111957600080fd5b50565b60008135905061112b81611105565b92915050565b6000819050919050565b61114481611131565b811461114f57600080fd5b50565b6000813590506111618161113b565b92915050565b6000806040838503121561117e5761117d6110c9565b5b600061118c8582860161111c565b925050602061119d85828601611152565b9150509250929050565b60008115159050919050565b6111bc816111a7565b82525050565b60006020820190506111d760008301846111b3565b92915050565b6111e681611131565b82525050565b600060208201905061120160008301846111dd565b92915050565b6000806000606084860312156112205761121f6110c9565b5b600061122e8682870161111c565b935050602061123f8682870161111c565b925050604061125086828701611152565b9150509250925092565b600060ff82169050919050565b6112708161125a565b82525050565b600060208201905061128b6000830184611267565b92915050565b600080fd5b600080fd5b7f4e487b7100000000000000000000000000000000000000000000000000000000600052604160045260246000fd5b6112d382611053565b810181811067ffffffffffffffff821117156112f2576112f161129b565b5b80604052505050565b60006113056110bf565b905061131182826112ca565b919050565b600067ffffffffffffffff8211156113315761133061129b565b5b61133a82611053565b9050602081019050919050565b82818337600083830152505050565b600061136961136484611316565b6112fb565b90508281526020810184848401111561138557611384611296565b5b611390848285611347565b509392505050565b600082601f8301126113ad576113ac611291565b5b81356113bd848260208601611356565b91505092915050565b6000602082840312156113dc576113db6110c9565b5b600082013567ffffffffffffffff8111156113fa576113f96110ce565b5b61140684828501611398565b91505092915050565b600060208284031215611425576114246110c9565b5b60006114338482850161111c565b91505092915050565b600060208284031215611452576114516110c9565b5b600061146084828501611152565b91505092915050565b611472816110f3565b82525050565b600060208201905061148d6000830184611469565b92915050565b600080604083850312156114aa576114a96110c9565b5b60006114b88582860161111c565b92505060206114c98582860161111c565b9150509250929050565b7f4e487b7100000000000000000000000000000000000000000000000000000000600052602260045260246000fd5b6000600282049050600182168061151a57607f821691505b6020821081141561152e5761152d6114d3565b5b50919050565b7f4e487b7100000000000000000000000000000000000000000000000000000000600052601160045260246000fd5b600061156e82611131565b915061157983611131565b9250827fffffffffffffffffffffffffffffffffffffffffffffffffffffffffffffffff038211156115ae576115ad611534565b5b828201905092915050565b7f45524332303a2064656372656173656420616c6c6f77616e63652062656c6f7760008201527f207a65726f000000000000000000000000000000000000000000000000000000602082015250565b600061161560258361100f565b9150611620826115b9565b604082019050919050565b6000602082019050818103600083015261164481611608565b9050919050565b7f45524332303a20617070726f76652066726f6d20746865207a65726f2061646460008201527f7265737300000000000000000000000000000000000000000000000000000000602082015250565b60006116a760248361100f565b91506116b28261164b565b604082019050919050565b600060208201905081810360008301526116d68161169a565b9050919050565b7f45524332303a20617070726f766520746f20746865207a65726f20616464726560008201527f7373000000000000000000000000000000000000000000000000000000000000602082015250565b600061173960228361100f565b9150611744826116dd565b604082019050919050565b600060208201905081810360008301526117688161172c565b9050919050565b7f45524332303a20696e73756666696369656e7420616c6c6f77616e6365000000600082015250565b60006117a5601d8361100f565b91506117b08261176f565b602082019050919050565b600060208201905081810360008301526117d481611798565b9050919050565b7f45524332303a207472616e736665722066726f6d20746865207a65726f20616460008201527f6472657373000000000000000000000000000000000000000000000000000000602082015250565b600061183760258361100f565b9150611842826117db565b604082019050919050565b600060208201905081810360008301526118668161182a565b9050919050565b7f45524332303a207472616e7366657220746f20746865207a65726f206164647260008201527f6573730000000000000000000000000000000000000000000000000000000000602082015250565b60006118c960238361100f565b91506118d48261186d565b604082019050919050565b600060208201905081810360008301526118f8816118bc565b9050919050565b7f45524332303a207472616e7366657220616d6f756e742065786365656473206260008201527f616c616e63650000000000000000000000000000000000000000000000000000602082015250565b600061195b60268361100f565b9150611966826118ff565b604082019050919050565b6000602082019050818103600083015261198a8161194e565b9050919050565b7f45524332303a206d696e7420746f20746865207a65726f206164647265737300600082015250565b60006119c7601f8361100f565b91506119d282611991565b602082019050919050565b600060208201905081810360008301526119f6816119ba565b905091905056fea2646970667358221220fc79af53572b77f3ff24ffdd2257e05100fafd530af0cb328937b1eaaf6e3d2f64736f6c63430008090033",
  "linkReferences": {},
  "deployedLinkReferences": {}
}